:100000000A128A11172F00308A000408840A820716
:1000100000344C34593443344134203453344F3455
:06002000463454340034A4
:100E2E0083010A128A11B82F1C2F831203138C1DF3
:100E3E00212F222F1C2F232F1308252F08000230BD
:100E4E000A128A115A270A128A1128300A128A1196
:100E5E005A270A128A110C300A128A115A270A12BC
:100E6E008A110800F4004C2F740884000A128A11AB
:100E7E0003200A128A110A128A1189270A128A116C
:100E8E000130F3007308F4074C2F740884000A1223
:100E9E008A1103200A128A110038031D572F582F6A
:100EAE003B2F592F0800F2007208F03983120313FA
:100EBE008800081188152130F1007630F000F00B13
:100ECE00662FF10B662F64008312031388117208CC
:100EDE00F00003300310F00DFF3E031D712F0310C1
:100EEE00700DF0398800081188152130F100763028
:100EFE00F000F00B802FF10B802F64008312031390
:100F0E0088110800F2007208F0398312031388006A
:100F1E00081588152130F1007630F000F00B952F72
:100F2E00F10B952F64008312031388117208F000E1
:100F3E0003300310F00DFF3E031DA02F0310700DA4
:100F4E00F0398800081588152130F1007630F00050
:100F5E00F00BAF2FF10BAF2F640083120313881128
:100F6E0008008316031388018312031388011830B7
:100F7E008316031387008312031387010A128A1143
:100F8E0026270A128A118316031394012530831221
:100F9E000313940080300A128A115A270A128A11FA
:100FAE0001300A128A1139270A128A11C0300A1228
:100FBE008A115A270A128A11E42F0A128A111B2744
:100FCE000A128A11F5007508F70077080A128A11BD
:100FDE0089270A128A112130F6007630F500F50BBA
:100FEE00F62FF60BF62F6400E42FE42F0A128A1167
:020FFE000028C9
:02400E003A3F37
:00000001FF
